:0D0F2C0054454D503A20004741533A2000F3
:060F3900041A4040000014
:100D6600C2B2C2B3C2A5C2A6C2A7C297E4F5901288
:100D76000DC97580FFC2A0D2A3D2A1D2A2D2A4C2AD
:100D8600A2D2A220A3FDC2A1AC80E4120B21E4FBF7
:100D9600FA79A078401208F8E4FBFA7980784312D1
:100DA6000A018F0B8E0A8D098C08A2A4E433F50C78
:100DB600FF120F09AF0BAE0AAD09AC08120E7ED2B8
:030DC600A180BC4D
:100EF700758901E4F58AF58CD28C308DFDC28CC2E0
:020F07008D2239
:100EE400D297C2A5D2A6C2A7120EF7D2A72097F610
:030EF400C2972280
:100F1B00120EE48F90C2A5C2A6D2A7120EF7C2A7DB
:010F2B0022A3
:040ECF00EE2430FFDE
:100ED300120EE48F90D2A5C2A6D2A7120EF7C2A714
:010EE30022EC
:100DC900780D7C007D007BFF7A0F792C7E007F07F0
:100DD900120CA678147C007D007BFF7A0F79337E94
:100DE900007F06120CA67F38120F1B7F0E120F1BF5
:100DF9007F01120F1B7F80120F1BE4FE740D2EF86A
:100E0900E6FF120ED30EBE06F37FC0120F1BE4FEDF
:0D0E190074142EF8E6FF120ED30EBE05F382
:010E260022A9
:100F0900AE07EE24FF92B27F8B120F1B120ECF0297
:020F19000EF7D1
:080E7E008F108E0F8D0E8C0DFC
:100E86007FCB120F1BAF10AE0FAD0EAC0D120E279F
:100E9600AF1DAE1CAD1BAC1AAB10AA0FA90EA80D48
:100EA600120A9E4012D2B3E4F511120EF70511E5AF
:100EB60011C3940F40F422C2B3E4F511120EF705E4
:080EC60011E511C3940F40F483
:010ECE002201
:080E27008F158E148D138C123F
:100E2F00120B558F16AC16E4120B21A804A905AAB4
:100E3F0006AB07AF15AE14AD13AC12120803E4FBEB
:100E4F00FA79C878421208F8120B55EF75F00A8438
:100E5F00FEEF75F00A84ADF0E5162430FF120ED3C5
:0F0E6F007F2E120ED3120ECFED2430FF020ED3C2
:10080000020BC1E86480F8E933E83360110460F05A
:10081000ED33EC337009E8FCE9FDEAFEEBFF22045E
:1008200060DED3EB9FEA9EE99DE8C2E78CF0C2F759
:1008300095F0400CE8CCF8E9CDF9EACEFAEBCFFB25
:10084000120B8C85D0F05804700320D5B3E80470E7
:10085000075002B2D5020BCB92D5EC0460F7E4CC82
:10086000C0E0C398F8603B94186008400DD0E0FBEE
:10087000020BA3E4FBFAC9FC8028E830E406E4C9D3
:10088000FBE4CAFCE830E305E4C9CACBFCE8540742
:100890006010F8C3E913F9EA13FAEB13FBEC13FC4D
:1008A000D8F130F52FC3E49CFCEF9BFFEE9AFEEDF0
:1008B00099FDD0E0FBEF4E4D4C701222DB03020B92
:1008C000C8EC2CFCEF33FFEE33FEED33FDED30E7EB
:1008D000EB020BA3EF2BFFEE3AFEED39FDD0E0FB70
:1008E00050130BBB0003020BCBED13FDEE13FEEF19
:0808F00013FFEC13FC020BA343
:1008F800EC4D6011E8497017ED33EC3304600DE4FA
:10090800FCFFFEFD22E933E8330470F8020BC11244
:100918000B8C58046009E4CC248150062850090245
:100928000BCB284003020BC8C0E0EB4A7044B980E7
:1009380006D0E0FB020BB7EF4E701CBD8008EBFF42
:10094800EAFEE9FD80EBE98DF0A4FEE5F00209E19D
:10095800E9CDF9EAFEEBFFEF89F0A4FCE5F0CE89DA
:10096800F0A42EFFE435F0CD89F0A42DFEE435F097
:100978008067EF4E7005BD80D780C3EF8BF0A4ACC5
:10098800F0EE8BF0A42CFCE435F0F8EF8AF0A42C00
:10099800E5F038FCE433CB8DF0A42CFCE5F03BF813
:1009A800EE8AF0A42CFCE5F038F8E433CF89F0A403
:1009B8002CFCE5F038CF3400CE89F0A42FFFE5F009
:1009C8003EFEE433C98DF0A42EFEE5F039CD8AF061
:1009D800A42FFFE5F03EFEE43DFD33D0E0FB5007D9
:1009E8000BBB000F020BCBEC2CFCEF33FFEE33FEFE
:0609F800ED33FD020BA32C
:1009FE00020BCBEC5D046005E859047003020BC1D9
:100A0E00120B8C580460F6EC4860F2EC7004FDFE9C
:100A1E00FF22C860DB2481C85009C39860025006CB
:100A2E00020BC89850CAF582E9294B4A7005AB8271
:100A3E00020BB775F0007C1A7880C3EF9BEE9AED2F
:100A4E0099400DC3EF9BFFEE9AFEED99FDE842F043
:100A5E00DC23ACF0D0E0FFD0E0FED0E0FDAB822096
:100A6E00E7101BEB60BAEC2CFCEF33FFEE33FEED20
:100A7E0033FD020BA3E803F830E705C0F075F00074
:100A8E00EF2FFFEE33FEED33FD40B830E7C280AA04
:100A9E0074F8CC6480CCC86480C8F58204604FC3FF
:100AAE00EB9FF5F0EA9E42F0E99D42F0E89C45F09E
:100ABE00603C501DE5825FFFE582D313CB5BCBF428
:100ACE002B5582FB50280ABA002409B90020088051
:100ADE001DE5825BFBE582D313CF5FCFF4C3132FEB
:100AEE005582FF50090EBE00050DBD00010CC3EB73
:100AFE009FF5F0EA9E42F0E99D42F0E89C45F060D9
:090B0E0007CC4820E701B3EC22FA
:100B170075F020800E75F010800575F0087D007E59
:100B2700007F003392D530D503120CCCEC33401044
:100B3700EF33FFEE33FEED33FDEC33FCD5F0ED2262
:0E0B4700E5F0247EA2D513CC92E7CDCEFF229E
:100B5500EDD2E7CD33EC3392D524814006E4FFFE98
:100B6500FDFC22FCE4CFCECDCC24E0501174FF80F7
:100B7500EDC3CC13CCCD13CDCE13CECF13CF047094
:070B8500F030D5DE020CCCBC
:100B8C00E9D2E7C933E833F892D5EDD2E7CD33ECAF
:070B9C0033FC5002B2D52228
:100BA300EC30E7100FBF000C0EBE00080DBD0004B3
:100BB3000BEB6014A2D5EB13FCED92E7FD2274FF5F
:100BC300FCFDFEFF22E480F8A2D574FF13FC7D80B8
:030BD300E480EFCC
:03000000020CDA15
:0C0CDA00787FE4F6D8FD75811D020D2125
:100BD600E709F608DFFA8046E709F208DFFA803E01
:100BE60088828C83E709F0A3DFFA8032E309F608EE
:100BF600DFFA8078E309F208DFFA807088828C8356
:100C0600E309F0A3DFFA806489828A83E0A3F60809
:100C1600DFFA805889828A83E0A3F208DFFA804CE3
:100C260080D280FA80C680D4806980F280338010BA
:100C360080A680EA809A80A880DA80E280CA803323
:100C460089828A83ECFAE493A3C8C582C8CCC5839B
:100C5600CCF0A3C8C582C8CCC583CCDFE9DEE7806B
:100C66000D89828A83E493A3F608DFF9ECFAA9F0EA
:100C7600EDFB2289828A83ECFAE0A3C8C582C8CC40
:100C8600C583CCF0A3C8C582C8CCC583CCDFEADE59
:100C9600E880DB89828A83E493A3F208DFF980CCBB
:100CA60088F0EF60010E4E60C388F0ED2402B404B4
:100CB6000050B9F582EB2402B4040050AF2323455B
:060CC6008223900C26734E
:0E0CCC00C3E49FFFE49EFEE49DFDE49CFC2239
:100CE600020D66E493A3F8E493A34003F68001F2B1
:100CF60008DFF48029E493A3F85407240CC8C3330F
:100D0600C4540F4420C8834004F456800146F6DFDD
:100D1600E4800B0102040810204080900F39E47E25
:100D2600019360BCA3FF543F30E509541FFEE493D2
:100D3600A360010ECF54C025E060A840B8E493A399
:100D4600FAE493A3F8E493A3C8C582C8CAC583CAC4
:100D5600F0A3C8C582C8CAC583CADFE9DEE780BE7C
:010F3F0000B1
:00000001FF
